:100000000C942A000C9471170C94A8170C94DF1709
:100010000C9447000C9447000C944C0A0C94470035
:100020000C9447000C9447000C9491110C944611C9
:100030000C9447000C9447000C9447000C94470024
:100040000C9447000C9447000C9447000C94470014
:100050000C94470011241FBECFE5D8E0DEBFCDBF12
:1000600012E0A0E6B0E0E4EFF4E502C005900D92E6
:10007000AA30B107D9F712E0AAE0B2E001C01D92A0
:10008000A337B107E1F70E9467290C94782A0C94F2
:100090000000EF92FF920F931F937B018C0120E0F1
:1000A00030E040E05FE40E94F50388238CF0C80153
:1000B000B70120E030E040E05FE40E94C1010E940F
:1000C00055049B01AC01205030404040504806C0D0
:1000D000C801B7010E9455049B01AC01B901CA01D6
:1000E0001F910F91FF90EF900895A0E0B0E0EBE733
:1000F000F0E00C94412ADC012B01FA019C91923032
:1001000008F439C1EB018881823008F433C194309E
:1001100069F4843009F02FC111969C91119789815F
:10012000981709F428C1A0E6B0E025C1843009F48D
:1001300021C18230A9F4923009F01DC19A01AD01AC
:1001400088E0EA010990AE01E90109929E0181501F
:10015000C1F7E201898111969C918923818308C1AD
:10016000923009F407C112962D903C901397EB0141
:100170008A819B811496AD90BD90CD90DC901797AD
:10018000EC80FD800E811F819101281B390BB90184
:1001900037FF04C066277727621B730B6032710537
:1001A0000CF061C0121613066CF537014801062EDB
:1001B00004C096948794779467940A94D2F721E0C8
:1001C00030E040E050E004C0220F331F441F551FB1
:1001D0006A95D2F721503040404050402E213F21B7
:1001E00040235123211531054105510521F021E01E
:1001F00030E040E050E079018A01E628F72808293C
:1002000019293CC0232BD1F1260E371E350146019A
:10021000062E04C096948794779467940A94D2F734
:1002200021E030E040E050E004C0220F331F441FC3
:10023000551F6A95D2F721503040404050402A2146
:100240003B214C215D21211531054105510521F04E
:1002500021E030E040E050E059016A01A628B728CB
:10026000C828D9280BC0821593052CF01C01AA249C
:10027000BB24650103C0EE24FF24870111969C91E5
:10028000D20111968C91981709F445C0992339F041
:10029000A80197012A193B094C095D0906C0A6016E
:1002A00095012E193F09400B510B57FD08C01182D3
:1002B0003382228224833583468357831DC081E0A5
:1002C00081833382228288279927DC01821B930B4A
:1002D000A40BB50B84839583A683B7830DC0220F2F
:1002E000331F441F551F24833583468357838281E0
:1002F000938101979383828324813581468157813D
:10030000DA01C9010197A109B1098F5F9F4FAF4F72
:10031000BF4328F30BC0918333822282EA0CFB1C7B
:100320000C1D1D1DE482F5820683178383E0808304
:10033000248135814681578157FF1AC0C901AA27F8
:1003400097FDA095BA2F81709070A070B0705695EF
:10035000479537952795822B932BA42BB52B848318
:100360009583A683B7838281938101969383828349
:10037000DF0101C0D201CD01CDB7DEB7E2E10C94BF
:100380005D2AA0E2B0E0E7ECF1E00C944D2A69832D
:100390007A838B839C832D833E834F835887E9E048
:1003A000EE2EF12CEC0EFD1ECE010196B7010E943F
:1003B00046068E010F5E1F4FCE010596B8010E94C2
:1003C00046068A8991E089278A8BC701B801AE0168
:1003D000475E5F4F0E9475000E947105A096E6E09F
:1003E0000C94692AA0E2B0E0E8EFF1E00C944D2A09
:1003F00069837A838B839C832D833E834F835887C5
:10040000F9E0EF2EF12CEC0EFD1ECE010196B701A6
:100410000E9446068E010F5E1F4FCE010596B80161
:100420000E944606C701B801AE01475E5F4F0E94B9
:1004300075000E947105A096E6E00C94692AA0E27E
:10044000B0E0E5E2F2E00C94412A69837A838B8381
:100450009C832D833E834F835887CE010196BE0136
:10046000675F7F4F0E944606CE010596BE016F5E14
:100470007F4F0E9446069985923088F089898230A4
:10048000C8F0943019F4823051F404C0843029F457
:10049000923081F480E690E0C6C0923049F420E0CA
:1004A0009A858A89981321E02A87CE010996BBC0D4
:1004B000823049F420E09A858A89981321E02A8BBA
:1004C000CE014196B0C02D843E844F8458886D88FB
:1004D0007E888F88988CEE24FF248701AA24BB2471
:1004E000650140E050E060E070E0E0E0F0E0C10174
:1004F00081709070892BE9F0E60CF71C081D191D1E
:100500009A01AB012A0D3B1D4C1D5D1D80E090E062
:10051000A0E0B0E0E614F7040805190520F481E036
:1005200090E0A0E0B0E0BA01A901480F591F6A1F8E
:100530007B1FAA0CBB1CCC1CDD1C97FE08C081E0F5
:1005400090E0A0E0B0E0A82AB92ACA2ADB2A3196B6
:10055000E032F10549F0660C771C881C991C569412
:10056000479437942794C3CFFA85EA892B893C892D
:100570008B859C85280F391F2E5F3F4F17C0CA01FE
:1005800081709070892B61F016950795F794E79428
:1005900080E090E0A0E0B0E8E82AF92A0A2B1B2BC3
:1005A00076956795579547952F5F3F4F77FDE7CF36
:1005B0000CC0440F551F661F771F17FD4160EE0CDE
:1005C000FF1C001F111F21503040403090E05907A0
:1005D00090E0690790E4790760F32B8F3C8FDB0193
:1005E000CA018F779070A070B07080349105A1051A
:1005F000B10561F447FD0AC0E114F10401051105DC
:1006000029F0405C5F4F6F4F7F4F40781A8EFE1786
:1006100011F081E08A8F4D8F5E8F6F8F78A383E01A
:10062000898FCE0149960E947105A096E2E10C9453
:100630005D2AA8E1B0E0EFE1F3E00C94492A698378
:100640007A838B839C832D833E834F835887B9E0C5
:10065000EB2EF12CEC0EFD1ECE010196B7010E948F
:1006600046068E010F5E1F4FCE010596B8010E940F
:1006700046062985223008F47EC03989323010F4CC
:10068000B8017CC08A859A8989278A87243011F02D
:10069000223031F4231709F06EC060E670E06EC0BE
:1006A000343039F41D861E861F86188A1C861B86E8
:1006B00004C0323021F484E08987B7015FC02B8504
:1006C0003C858B899C89281B390B3C872B87ED84C3
:1006D000FE840F851889AD88BE88CF88D88CEA142F
:1006E000FB040C051D0540F4EE0CFF1C001F111F40
:1006F000215030403C872B8720E030E040E050E044
:1007000080E090E0A0E0B0E460E070E0EA14FB0478
:100710000C051D0540F0282B392B4A2B5B2BEA18C2
:10072000FB080C091D09B695A79597958795EE0CC2
:10073000FF1C001F111F6F5F7F4F6F31710531F775
:10074000DA01C9018F779070A070B0708034910584
:10075000A105B10561F427FD0AC0E114F10401050A
:10076000110529F0205C3F4F4F4F5F4F20782D87B8
:100770003E874F87588BBE01675F7F4FCB010E943A
:1007800071056896EAE00C94652AA8E1B0E0EBEC0C
:10079000F3E00C944D2A69837A838B839C832D83A9
:1007A0003E834F83588789E0E82EF12CEC0EFD1E26
:1007B000CE010196B7010E9446068E010F5E1F4FC3
:1007C000CE010596B8010E9446068985823040F028
:1007D0008989823028F0C701B8010E94BE0601C095
:1007E0008FEF6896E6E00C94692AA8E1B0E0EBEFA1
:1007F000F3E00C944D2A69837A838B839C832D8349
:100800003E834F83588789E0E82EF12CEC0EFD1EC5
:10081000CE010196B7010E9446068E010F5E1F4F62
:10082000CE010596B8010E9446068985823040F0C7
:100830008989823028F0C701B8010E94BE0601C034
:100840008FEF6896E6E00C94692AA8E1B0E0EBE24D
:10085000F4E00C944D2A69837A838B839C832D83E7
:100860003E834F83588789E0E82EF12CEC0EFD1E65
:10087000CE010196B7010E9446068E010F5E1F4F02
:10088000CE010596B8010E9446068985823040F067
:100890008989823028F0C701B8010E94BE0601C0D4
:1008A00081E06896E6E00C94692AACE0B0E0EBE504
:1008B000F4E00C94512A69837A838B839C83CE0164
:1008C0000196BE016B5F7F4F0E9446068D8182308C
:1008D00061F1823050F1843021F48E81882351F10E
:1008E0002EC02F81388537FD20C06E812F31310514
:1008F0001CF06623F9F023C08EE190E0821B930B7D
:1009000029853A854B855C8504C056954795379572
:1009100027958A95D2F76623B1F05095409530958A
:1009200021953F4F4F4F5F4F0EC020E030E040E039
:1009300050E009C02FEF3FEF4FEF5FE704C020E02A
:1009400030E040E050E8B901CA012C96E2E00C9496
:100950006D2AA8E0B0E0EFEAF4E00C94492A7B01AC
:100960008C01611571058105910519F482E0898377
:1009700060C083E089838EE1C82ED12CDC82CB82DB
:10098000ED82FE820F831887C801B7010E942205FD
:10099000FC013197F7FF3BC0222733272E1B3F0B6B
:1009A00057016801022E04C0D694C794B794A79447
:1009B0000A94D2F740E050E060E070E081E090E01F
:1009C000A0E0B0E004C0880F991FAA1FBB1F2A95A2
:1009D000D2F70197A109B1098E219F21A023B1234C
:1009E0000097A105B10521F041E050E060E070E022
:1009F0004A295B296C297D294D835E836F83788723
:100A00008EE190E08E1B9F0B9C838B8312C03097EE
:100A100081F00E2E04C0EE0CFF1C001F111F0A9463
:100A2000D2F7ED82FE820F831887CE1ADF0ADC82AE
:100A3000CB821A82CE0101960E9471052896EAE0C7
:100A40000C94652AEF92FF920F931F937B018C0108
:100A500080E0E81680E0F80681E0080780E01807EB
:100A600088F48FEFE816F1040105110531F028F044
:100A700088E090E0A0E0B0E017C080E090E0A0E067
:100A8000B0E012C080E0E81680E0F80680E00807D9
:100A900081E0180728F088E190E0A0E0B0E004C011
:100AA00080E190E0A0E0B0E020E230E040E050E003
:100AB000281B390B4A0B5B0B04C016950795F7945E
:100AC000E7948A95D2F7F701E859FF4F8081281BF8
:100AD000310941095109C9011F910F91FF90EF9010
:100AE0000895DF92EF92FF920F931F93FC01E48031
:100AF000F58006811781D1808081823048F480E0C2
:100B000090E0A0E1B0E0E82AF92A0A2B1B2BA5C04F
:100B1000843009F49FC0823021F4EE24FF24870141
:100B200005C0E114F1040105110519F4E0E0F0E05D
:100B300096C0628173819FEF623879070CF05BC0C9
:100B400022E83FEF261B370B2A3131052CF020E03D
:100B500030E040E050E02AC0B801A701022E04C0F6
:100B600076956795579547950A94D2F781E090E07E
:100B7000A0E0B0E004C0880F991FAA1FBB1F2A95F0
:100B8000D2F70197A109B1098E219F21A023B1239A
:100B90000097A105B10521F081E090E0A0E0B0E070
:100BA0009A01AB01282B392B4A2B5B2BDA01C901A7
:100BB0008F779070A070B07080349105A105B10559
:100BC00039F427FF09C0205C3F4F4F4F5F4F04C0EF
:100BD000215C3F4F4F4F5F4FE0E0F0E02030A0E05E
:100BE0003A07A0E04A07A0E45A0710F0E1E0F0E07D
:100BF00079018A0127C06038710564F5FB01E1586D
:100C0000FF4FD801C7018F779070A070B07080340B
:100C10009105A105B10539F4E7FE0DC080E490E02F
:100C2000A0E0B0E004C08FE390E0A0E0B0E0E80E08
:100C3000F91E0A1F1B1F17FF05C016950795F7948D
:100C4000E794319687E016950795F794E7948A958F
:100C5000D1F705C0EE24FF248701EFEFF0E06E2FFF
:100C6000679566276795902F9F77D794DD24D79453
:100C70008E2F8695492F462B582F5D29B701CA0123
:100C80001F910F91FF90EF90DF900895FC01DB0121
:100C9000408151812281622F6F7770E0221F2227CD
:100CA000221F9381892F880F822B282F30E0991FD4
:100CB0009927991F11969C93119721153105A9F534
:100CC000411551056105710511F482E037C082E8D4
:100CD0009FEF13969C938E9312979A01AB0167E056
:100CE000220F331F441F551F6A95D1F783E08C9361
:100CF0000DC0220F331F441F551F12968D919C91DA
:100D00001397019713969C938E931297203080E04F
:100D1000380780E0480780E4580758F314962D936D
:100D20003D934D935C93179708952F3F310579F4C8
:100D3000411551056105710519F484E08C930895FE
:100D400064FF03C081E08C9312C01C9210C02F5727
:100D5000304013963C932E93129783E08C9387E058
:100D6000440F551F661F771F8A95D1F7706414963C
:100D70004D935D936D937C93179708951F93DC01BA
:100D8000FB019C91923008F447C08081823008F4C6
:100D900043C0943051F411961C91843099F58181AF
:100DA000682F70E0611B71093FC0843021F09230E0
:100DB00031F48230B9F18181882389F12DC01196F7
:100DC0001C9111978230F1F081811817D9F4129695
:100DD0002D913C911397828193818217930794F010
:100DE00028173907BCF014968D919D910D90BC91F8
:100DF000A02D2481358146815781281739074A075C
:100E00005B0718F4112341F00AC082179307A40767
:100E1000B50740F4112319F061E070E005C06FEFF1
:100E20007FEF02C060E070E0CB011F910895DF9377
:100E3000CF93CDB7DEB7E3E5F0E08DE08083ECE55E
:100E4000F0E08CE9808381E080930E0280910E02B5
:100E500080930F02A9E5B0E0E9E5F0E080818260CF
:100E60008C93CF91DF9108950F93DF93CF93CDB7FC
:100E7000DEB728970FB6F894DEBF0FBECDBF9A83BA
:100E800089837C836B835E834D832F83088789816D
:100E90009A81009709F457C08D819E81009709F4CB
:100EA00052C08F81853008F04EC08F81882F90E02E
:100EB000880F991F880F991F880F991FFC01E75B06
:100EC000FD4F89819A81918380838F81882F90E063
:100ED000880F991F0196880F991F880F991FFC0191
:100EE000E75BFD4F8D819E81918380838F81882F69
:100EF00090E0880F991F880F991F880F991FFC0198
:100F0000E15BFD4F88E380838F81882F90E0880F1D
:100F1000991F880F991F880F991FFC01E05BFD4FF7
:100F2000888580838F81882F90E0880F991F880F94
:100F3000991F0196880F991FFC01E75BFD4F8B817C
:100F40009C819183808328960FB6F894DEBF0FBEF4
:100F5000CDBFCF91DF910F910895EF92FF920F9344
:100F60001F93DF93CF9300D000D00F92CDB7DEB7A1
:100F70001A821B821C821D82789420910A02309171
:100F80000B0240910C0250910D028A819B81AC8131
:100F9000BD8182179307A407B50778F780910A02ED
:100FA00090910B02A0910C02B0910D028A839B8359
:100FB000AC83BD831982B9C08981882F90E0880FE6
:100FC000991F880F991F880F991FFC01E75BFD4F40
:100FD00080819181009709F4A5C020910A02309187
:100FE0000B0240910C0250910D028981882F90E0F4
:100FF000880F991F880F991F880F991FFC01E05BCC
:10100000FD4F8081882F90E0A0E0B0E079018A0157
:10101000E81AF90A0A0B1B0B8981882F90E0880FC8
:10102000991F0196880F991F880F991FFC01E75B94
:10103000FD4F808191819C0140E050E0C801B701E3
:101040000E94042ADC01CB010097A105B105F1F44F
:101050008981882F90E0880F991F880F991F880F2A
:10106000991FFC01E05BFD4F8081282F30E040E0BC
:1010700050E080910A0290910B02A0910C02B09175
:101080000D0282179307A407B507F0F48981882F12
:1010900090E0880F991F880F991F880F991FFC01F6
:1010A000E05BFD4F8081282F30E040E050E08091F0
:1010B0000A0290910B02A0910C02B0910D02281728
:1010C00039074A075B0771F58981882F90E0880FFF
:1010D000991F880F991F880F991FFC01E15BFD4F35
:1010E00080818833F9F48981882F90E0880F991FD7
:1010F000880F991F880F991FFC01E75BFD4F208126
:1011000031818981882F90E0880F991F880F991F5E
:101110000196880F991FFC01E75BFD4F808191814B
:10112000F901099589818F5F89838981853008F468
:1011300043CF23CFDF93CF930F92CDB7DEB7898311
:101140008981853070F48981882F90E0880F991FFC
:10115000880F991F880F991FFC01E15BFD4F82E208
:1011600080830F90CF91DF910895DF93CF930F92FB
:10117000CDB7DEB7898389818530E8F48981882FEE
:1011800090E0880F991F880F991F880F991FFC0105
:10119000E15BFD4F8081823271F48981882F90E07C
:1011A000880F991F880F991F880F991FFC01E15B19
:1011B000FD4F88E380830F90CF91DF910895DF93F7
:1011C000CF930F92CDB7DEB7898389818530E0F464
:1011D0008981882F90E0880F991F880F991F880FA9
:1011E000991FFC01E15BFD4F8AE580838981882F8F
:1011F00090E0880F991F880F991F880F991FFC0195
:10120000E75BFD4F118210820F90CF91DF9108951F
:10121000DF93CF930F92CDB7DEB781E08983AFE440
:10122000B0E0EFE4F0E080818C7F8C93AFE4B0E03D
:10123000EFE4F0E080818C93AEE4B0E0EEE4F0E027
:101240008081877C8C93AEE4B0E0EEE4F0E08081B6
:101250008C93AFE4B0E0EFE4F0E080818F738C9387
:10126000AFE4B0E0EFE4F0E08081806C8C93AEE41A
:10127000B0E0EEE4F0E080818F7C8C93A9E5B0E0F3
:10128000E9E5F0E080818B7F8C93A9E5B0E0E9E5AA
:10129000F0E0808184608C93A9E5B0E0E9E5F0E0BE
:1012A00080818F7E8C93A9E5B0E0E9E5F0E0808154
:1012B00080618C9389810F90CF91DF910895DF93A6
:1012C000CF930F92CDB7DEB781E08983AEE4B0E073
:1012D000EEE4F0E08081887F8C93AEE4B0E0EEE451
:1012E000F0E0808181608C9389810F90CF91DF91B4
:1012F0000895DF93CF930F92CDB7DEB781E0898356
:10130000A9E5B0E0E9E5F0E080818F7D8C93A9E567
:10131000B0E0E9E5F0E0808180628C9389810F90F4
:10132000CF91DF910895DF93CF930F92CDB7DEB7C2
:1013300081E08983A9E5B0E0E9E5F0E080818F7D77
:101340008C93A9E5B0E0E9E5F0E080818F7D8C9396
:1013500089810F90CF91DF910895DF93CF9300D0D3
:1013600000D0CDB7DEB78A8381E08983AEE4B0E0F8
:10137000EEE4F0E080818F7B8C938A81282F30E02F
:101380003C832B838B819C81009769F02B813C816E
:101390002130310581F4AEE4B0E0EEE4F0E080818C
:1013A00080648C930AC0AEE4B0E0EEE4F0E08081AB
:1013B0008F7B8C9302C082E0898389810F900F908C
:1013C0000F900F90CF91DF910895DF93CF9300D0CE
:1013D0000F92CDB7DEB79B838A8381E08983E6E4F1
:1013E000F0E08081882F90E0EA81FB819183808307
:1013F00089810F900F900F90CF91DF910895DF9327
:10140000CF930F92CDB7DEB781E08983EDE4F0E0B2
:10141000108289810F90CF91DF910895DF93CF9350
:1014200000D000D000D0CDB7DEB78A837C836B8339
:101430005E834D8319828B819C81009709F18A819B
:101440008230D8F48A81882F90E02B813C81880FEC
:10145000991FFC01EB5EFD4F318320838A81882F29
:1014600090E0880F991FFC01E35EFD4F8D819E8106
:101470009183808381E0898305C082E0898302C0F3
:1014800083E08983898126960FB6F894DEBF0FBE6C
:10149000CDBFCF91DF9108951F920F920FB60F929B
:1014A00011242F933F934F935F936F937F938F9369
:1014B0009F93AF93BF93EF93FF93DF93CF93CDB7FA
:1014C000DEB78091150290911602009749F0E091E5
:1014D0001502F091160280911D0290911E0209954D
:1014E000CF91DF91FF91EF91BF91AF919F918F913C
:1014F0007F916F915F914F913F912F910F900FBE10
:101500000F901F901895DF93CF93CDB7DEB76197FB
:101510000FB6F894DEBF0FBECDBF2A833B834C834A
:101520005D836E837F83888719828A81282F30E0CC
:10153000398B288B888999898130910529F12889EF
:101540003989223031052CF488899989009761F016
:101550004EC0288939892230310539F18889998925
:101560008330910599F143C0A3E5B0E0E3E5F0E0F5
:101570008081877B8C93A3E5B0E0E3E5F0E0808198
:101580008C9381E0898337C0A3E5B0E0E3E5F0E028
:101590008081877B8C93A3E5B0E0E3E5F0E0808178
:1015A00080648C9381E0898326C0A3E5B0E0E3E505
:1015B000F0E08081877B8C93A3E5B0E0E3E5F0E089
:1015C000808188608C9381E0898315C0A3E5B0E0B9
:1015D000E3E5F0E08081877B8C93A3E5B0E0E3E571
:1015E000F0E0808188648C9381E0898304C0198253
:1015F00099819F87C2C08B81282F30E03E872D873D
:101600008D859E858130910519F12D853E8522308D
:1016100031052CF48D859E85009761F046C02D859F
:101620003E852230310519F18D859E8583309105E7
:1016300069F13BC0A3E5B0E0E3E5F0E080818F7C99
:101640008C93A3E5B0E0E3E5F0E080818C9331C0BA
:10165000A3E5B0E0E3E5F0E080818F7C8C93A3E527
:10166000B0E0E3E5F0E0808180618C9322C0A3E5E7
:10167000B0E0E3E5F0E080818F7C8C93A3E5B0E0FF
:10168000E3E5F0E0808180628C9313C0A3E5B0E0D5
:10169000E3E5F0E080818F7C8C93A3E5B0E0E3E5A7
:1016A000F0E0808180638C9304C0198299819F87C8
:1016B00064C08E81282F30E03C872B878B859C85EA
:1016C000009731F02B853C852130310581F01EC01B
:1016D000A9E5B0E0E9E5F0E080818E7F8C93A9E593
:1016E000B0E0E9E5F0E080818E7F8C9313C0A9E53E
:1016F000B0E0E9E5F0E080818E7F8C93A9E5B0E071
:10170000E9E5F0E0808181608C9304C01982398121
:101710003F8733C08F81282F30E03A87298789851A
:101720009A85009731F029853A852130310581F07D
:101730001EC0A9E5B0E0E9E5F0E080818D7F8C93E3
:10174000A9E5B0E0E9E5F0E080818D7F8C9313C0DE
:10175000A9E5B0E0E9E5F0E080818D7F8C93A9E513
:10176000B0E0E9E5F0E0808182608C9304C01982EA
:1017700039813F8702C089818F878F8561960FB637
:10178000F894DEBF0FBECDBFCF91DF910895DF93F8
:10179000CF93CDB7DEB72A970FB6F894DEBF0FBE52
:1017A000CDBF2A833B834C835D836E837F83888791
:1017B0001982ECE5F0E0888580838C819D819A8791
:1017C000898789859A8521E08030920709F458C07D
:1017D00089859A8521E08130920780F489859A85F0
:1017E0008830910579F189859A8580349105C9F110
:1017F00089859A8581309105B1F07EC089859A8569
:1018000024E08130920709F459C089859A8524E043
:101810008230920709F461C089859A8524E080307E
:101820009207E9F169C0A3E5B0E0E3E5F0E080816B
:10183000887F8C93A3E5B0E0E3E5F0E080818160F0
:101840008C935BC0A3E5B0E0E3E5F0E08081887FA6
:101850008C93A3E5B0E0E3E5F0E0808182608C93B7
:101860004CC0A3E5B0E0E3E5F0E08081887F8C9395
:10187000A3E5B0E0E3E5F0E0808183608C933DC0B8
:10188000A3E5B0E0E3E5F0E08081887F8C93A3E5F9
:10189000B0E0E3E5F0E0808184608C932EC0A3E5A6
:1018A000B0E0E3E5F0E08081887F8C93A3E5B0E0D1
:1018B000E3E5F0E0808185608C931FC0A3E5B0E094
:1018C000E3E5F0E08081887F8C93A3E5B0E0E3E579
:1018D000F0E0808186608C9310C0A3E5B0E0E3E582
:1018E000F0E08081887F8C93A3E5B0E0E3E5F0E051
:1018F000808187608C9301C0198289812A960FB6F6
:10190000F894DEBF0FBECDBFCF91DF910895DF9376
:10191000CF930F92CDB7DEB781E08983A3E5B0E026
:10192000E3E5F0E08081887F8C93A3E5B0E0E3E518
:10193000F0E080818C9389810F90CF91DF910895A1
:10194000EF92FF920F931F93DF93CF93CDB7DEB744
:101950002C970FB6F894DEBF0FBECDBF2A833B8312
:101960004C835D836E837F8388871A8709871982FA
:101970008A81282F30E03C872B878B859C850097B8
:1019800031F02B853C8522303105F9F043C0E2E58A
:10199000F0E08081282F30E040E050E08091280284
:1019A00090912902A0912A02B0912B02BA2FA92F5F
:1019B000982F8827820F931FA41FB51FE985FA85EA
:1019C00080839183A283B38326C0E2E5F0E0808127
:1019D000E82EFF2400E010E08885882F90E0A0E04A
:1019E000B0E020912C0230912D0240912E025091B6
:1019F0002F02BC01CD010E94C529DC01CB018E0D57
:101A00009F1DA01FB11FE985FA8580839183A28362
:101A1000B38301C0198289812C960FB6F894DEBF7A
:101A20000FBECDBFCF91DF911F910F91FF90EF902F
:101A30000895EF92FF920F931F93DF93CF93CDB74B
:101A4000DEB7A3970FB6F894DEBF0FBECDBF2F8BC6
:101A5000388F498F5A8F6B8F7C8F8D8FEE8EFF8ED4
:101A600008A319A31E8A8F898D8B898D9A8DCC012D
:101A7000A0E0B0E0BC01CD010E94A904DC01CB01D3
:101A8000BC01CD0120E034E244E75BE40E9419038D
:101A9000DC01CB01898B9A8BAB8BBC8B6E8D7F8DE0
:101AA00088A199A10E94A9047B018C0169897A8986
:101AB0008B899C8920E030E04AE754E40E941F02B1
:101AC000DC01CB019C01AD01C801B7010E941903E3
:101AD000DC01CB01BC01CD010E944900DC01CB013E
:101AE0008D879E87AF87B88B8D859E85AF85B8899A
:101AF000892F9A2FAB2FBB2789879A87AB87BC8703
:101B00008D859E85AF85B8899070A070B0708D83EB
:101B10009E83AF83B8878FEF90E0A0E0B0E0898329
:101B20009A83AB83BC838D89282F30E03BA32AA303
:101B30008AA19BA1009739F02AA13BA1223031054F
:101B400009F465C078C08D819E81AF81B88500970A
:101B5000A105B10581F0E2E5F0E08D8181958083FA
:101B600089859A85AB85BC850196A11DB11D8987A4
:101B70009A87AB87BC8781E08E8B2F89388D498D02
:101B80005A8D6B8D7C8D8D8D0E94C70B2091280204
:101B90003091290240912A0250912B0289859A8521
:101BA000AB85BC8582179307A407B50779F7109218
:101BB00028021092290210922A0210922B020E94EF
:101BC000870C3AC089819A81AB81BC810197A109B8
:101BD000B10989839A83AB83BC838D859E85AF854C
:101BE000B88929813A814B815C81BC01CD010E9479
:101BF000042ADA01C9018093300290933102A09344
:101C00003202B0933302ECE5F0E0898180838D816C
:101C10009E81AF81B8850097A105B10599F681E055
:101C20008E8B2F89388D498D5A8D6B8D7C8D8D8D46
:101C30000E94C70B01C01E8A8E89A3960FB6F89426
:101C4000DEBF0FBECDBFCF91DF911F910F91FF90EF
:101C5000EF900895DF93CF930F92CDB7DEB781E079
:101C60008983A9E5B0E0E9E5F0E080818D7F8C9380
:101C7000A9E5B0E0E9E5F0E0808182608C9389819C
:101C80000F90CF91DF910895DF93CF930F92CDB74F
:101C9000DEB781E08983A9E5B0E0E9E5F0E0808185
:101CA0008D7F8C93A9E5B0E0E9E5F0E080818D7F40
:101CB0008C9389810F90CF91DF910895DF93CF931B
:101CC00000D000D000D0CDB7DEB78A837C836B8391
:101CD0005E834D8319828B819C81009709F18A81F3
:101CE0008230D8F48A81882F90E02B813C81880F44
:101CF000991FFC01EC5CFD4F318320838A81882F82
:101D000090E0880F991FFC01E85CFD4F8D819E815A
:101D10009183808381E0898305C082E0898302C04A
:101D200083E08983898126960FB6F894DEBF0FBEC3
:101D3000CDBFCF91DF910895AF92BF92CF92DF9246
:101D4000EF92FF920F931F93DF93CF93CDB7DEB740
:101D500066970FB6F894DEBF0FBECDBF2C833D83D0
:101D60004E835F83688779878A87EB86FC860D8739
:101D70001E87AF86B88AC98ADA8A81E08B838D8113
:101D8000282F30E03C8B2B8B8B899C8982309105EE
:101D900031F0EB89FC89E330F10561F156C00CE5C7
:101DA00010E06F85788989899A8920E030E040E8E1
:101DB00053E40E941F02DC01CB01BC01CD0120E0F5
:101DC00030E048EC52E40E941903DC01CB01BC0175
:101DD000CD0120E030E040E85FE30E94C101DC017A
:101DE000CB01BC01CD010E944900DC01CB01F8010F
:101DF00080832CC00CE510E06F85788989899A89E9
:101E000020E030E040E853E40E941F02DC01CB01F7
:101E1000BC01CD0120E030E048EC52EC0E941903F7
:101E2000DC01CB01BC01CD0120E030E04FE753E401
:101E30000E94F201DC01CB01BC01CD010E944900EE
:101E4000DC01CB01F801808301C01B826B857C859E
:101E50008D859E8520E030E040E853E40E941F021B
:101E6000DC01CB019C01AD0160E074E284E79BE4FE
:101E70000E941903DC01CB01BC01CD010E94490085
:101E8000DC01CB019A83898329813A813E8B2D8B9A
:101E90008D899E89E1E080309E0709F458C02D8924
:101EA0003E8981E02130380780F4ED89FE89E830F1
:101EB000F10579F12D893E8920343105C9F18D89EB
:101EC0009E8981309105B1F07EC0ED89FE8924E0C4
:101ED000E130F20709F459C08D899E89E4E082302F
:101EE0009E0709F461C02D893E8984E020303807BF
:101EF000E9F169C0A3E5B0E0E3E5F0E08081887F27
:101F00008C93A3E5B0E0E3E5F0E0808181608C9301
:101F10005BC0A3E5B0E0E3E5F0E08081887F8C93CF
:101F2000A3E5B0E0E3E5F0E0808182608C934CC0F3
:101F3000A3E5B0E0E3E5F0E08081887F8C93A3E542
:101F4000B0E0E3E5F0E0808183608C933DC0A3E5E1
:101F5000B0E0E3E5F0E08081887F8C93A3E5B0E01A
:101F6000E3E5F0E0808184608C932EC0A3E5B0E0CF
:101F7000E3E5F0E08081887F8C93A3E5B0E0E3E5C2
:101F8000F0E0808185608C931FC0A3E5B0E0E3E5BD
:101F9000F0E08081887F8C93A3E5B0E0E3E5F0E09A
:101FA000808186608C9310C0A3E5B0E0E3E5F0E0AB
:101FB0008081887F8C93A3E5B0E0E3E5F0E0808149
:101FC00087608C9301C01B828B8166960FB6F89454
:101FD000DEBF0FBECDBFCF91DF911F910F91FF905C
:101FE000EF90DF90CF90BF90AF900895AF92BF92E7
:101FF000CF92DF92EF92FF920F931F93DF93CF93D5
:10200000CDB7DEB766970FB6F894DEBF0FBECDBF73
:102010002C833D834E835F83688779878A87EB862D
:10202000FC860D871E87AF86B88AC98ADA8A81E066
:102030008B838D81282F30E03C8B2B8B8B899C8967
:102040008230910531F0EB89FC89E330F10511F123
:102050004CC00CE510E06F85788989899A8920E069
:1020600030E04FE753E40E941F02DC01CB01BC01CA
:10207000CD0120E030E048EC52E40E941903DC017D
:10208000CB01BC01CD010E944900DC01CB01F8016C
:1020900080832CC00CE510E06F85788989899A8946
:1020A00020E030E040E853E40E941F02DC01CB0155
:1020B000BC01CD0120E030E048EC52EC0E94190355
:1020C000DC01CB01BC01CD0120E030E04FE753E45F
:1020D0000E94F201DC01CB01BC01CD010E9449004C
:1020E000DC01CB01F801808301C01B826B857C85FC
:1020F0008D859E8520E030E04FEF53E40E941F0263
:10210000DC01CB019C01AD0160E074E284E79BE45B
:102110000E941903DC01CB01BC01CD010E944900E2
:10212000DC01CB019A83898329813A813E8B2D8BF7
:102130008D899E89E1E080309E0709F458C02D8981
:102140003E8981E02130380780F4ED89FE89E8304E
:10215000F10579F12D893E8920343105C9F18D8948
:102160009E8981309105B1F07EC0ED89FE8924E021
:10217000E130F20709F459C08D899E89E4E082308C
:102180009E0709F461C02D893E8984E0203038071C
:10219000E9F169C0A3E5B0E0E3E5F0E08081887F84
:1021A0008C93A3E5B0E0E3E5F0E0808181608C935F
:1021B0005BC0A3E5B0E0E3E5F0E08081887F8C932D
:1021C000A3E5B0E0E3E5F0E0808182608C934CC051
:1021D000A3E5B0E0E3E5F0E08081887F8C93A3E5A0
:1021E000B0E0E3E5F0E0808183608C933DC0A3E53F
:1021F000B0E0E3E5F0E08081887F8C93A3E5B0E078
:10220000E3E5F0E0808184608C932EC0A3E5B0E02C
:10221000E3E5F0E08081887F8C93A3E5B0E0E3E51F
:10222000F0E0808185608C931FC0A3E5B0E0E3E51A
:10223000F0E08081887F8C93A3E5B0E0E3E5F0E0F7
:10224000808186608C9310C0A3E5B0E0E3E5F0E008
:102250008081887F8C93A3E5B0E0E3E5F0E08081A6
:1022600087608C9301C01B828B8166960FB6F894B1
:10227000DEBF0FBECDBFCF91DF911F910F91FF90B9
:10228000EF90DF90CF90BF90AF9008951F920F9284
:102290000FB60F9211248F939F93AF93BF93EF9339
:1022A000FF93DF93CF93CDB7DEB780911202909169
:1022B00013020197909313028093120280911202ED
:1022C00090911302009701F5E4E4F0E0809114028C
:1022D000808380910A0290910B02A0910C02B09130
:1022E0000D020196A11DB11D80930A0290930B026D
:1022F000A0930C02B0930D028091100290911102F4
:102300009093130280931202CF91DF91FF91EF918E
:10231000BF91AF919F918F910F900FBE0F901F9023
:1023200018951F920F920FB60F9211248F939F93BF
:10233000AF93BF93DF93CF93CDB7DEB780910F02FA
:10234000815080930F0280910F028823B9F480910D
:102350000A0290910B02A0910C02B0910D0201961D
:10236000A11DB11D80930A0290930B02A0930C0251
:10237000B0930D0280910E0280930F02CF91DF91F6
:10238000BF91AF919F918F910F900FBE0F901F90B3
:102390001895DF93CF93CDB7DEB72B970FB6F89490
:1023A000DEBF0FBECDBF9D838C838C819D81009746
:1023B00009F451C21B824BC28B81882F90E09C0193
:1023C000220F331F220F331F8C819D81FC01E20FEE
:1023D000F31F80819AE0692F0E94E429892F8A8364
:1023E0008B81882F90E09C01220F331F220F331F17
:1023F0008C819D81FC01E20FF31F80819AE0692F9F
:102400000E94E42989838B81882F90E09C01220F10
:10241000331F220F331F8C819D81FC01E20FF31FBC
:102420008281882389F08B81882F90E09C01220F84
:10243000331F220F331F8C819D81FC01E20FF31F9C
:102440008281813009F000C28981282F30E03B87EA
:102450002A876A857B8562307105D1F18A859B85E3
:102460008330910534F42A853B852130310571F0A4
:1024700094C06A857B856330710509F44BC08A85F9
:102480009B858430910509F467C087C0AAE3B0E05A
:10249000EAE3F0E040818B81882F90E09C01220FDD
:1024A000331F220F331F8C819D81FC01E20FF31F2C
:1024B0008281282F30E08A81882F90E0B90102C004
:1024C000660F771F8A95E2F7CB01842B8C9365C04A
:1024D000A7E3B0E0E7E3F0E040818B81882F90E054
:1024E0009C01220F331F220F331F8C819D81FC0121
:1024F000E20FF31F8281282F30E08A81882F90E03D
:10250000B90102C0660F771F8A95E2F7CB01842BD1
:102510008C9343C0A4E3B0E0E4E3F0E040818B811E
:10252000882F90E09C01220F331F220F331F8C81D4
:102530009D81FC01E20FF31F8281282F30E08A8108
:10254000882F90E0B90102C0660F771F8A95E2F7E5
:10255000CB01842B8C9321C0A1E3B0E0E1E3F0E058
:1025600040818B81882F90E09C01220F331F220F26
:10257000331F8C819D81FC01E20FF31F8281282F84
:1025800030E08A81882F90E0B90102C0660F771F82
:102590008A95E2F7CB01842B8C938B81882F90E076
:1025A0009C01220F331F220F331F8C819D81FC0160
:1025B000E20FF31F8181882389F08B81882F90E0BF
:1025C0009C01220F331F220F331F8C819D81FC0140
:1025D000E20FF31F8181813009F036C18981282FF4
:1025E00030E0398728876885798562307105D1F1B7
:1025F000888599858330910534F428853985213083
:10260000310571F094C0688579856330710509F4EE
:102610004BC0888599858430910509F467C087C0CF
:10262000ABE3B0E0EBE3F0E040818B81882F90E0FA
:102630009C01220F331F220F331F8C819D81FC01CF
:10264000E20FF31F8181282F30E08A81882F90E0EC
:10265000B90102C0660F771F8A95E2F7CB01842B80
:102660008C9365C0A8E3B0E0E8E3F0E040818B81A3
:10267000882F90E09C01220F331F220F331F8C8183
:102680009D81FC01E20FF31F8181282F30E08A81B8
:10269000882F90E0B90102C0660F771F8A95E2F794
:1026A000CB01842B8C9343C0A5E3B0E0E5E3F0E0DD
:1026B00040818B81882F90E09C01220F331F220FD5
:1026C000331F8C819D81FC01E20FF31F8181282F34
:1026D00030E08A81882F90E0B90102C0660F771F31
:1026E0008A95E2F7CB01842B8C9321C0A2E3B0E062
:1026F000E2E3F0E040818B81882F90E09C01220F83
:10270000331F220F331F8C819D81FC01E20FF31FC9
:102710008181282F30E08A81882F90E0B90102C0A2
:10272000660F771F8A95E2F7CB01842B8C938B8100
:10273000882F90E09C01220F331F220F331F8C81C2
:102740009D81FC01E20FF31F8281882309F07CC088
:102750008B81882F90E09C01220F331F220F331FA3
:102760008C819D81FC01E20FF31F8381882309F096
:102770006BC08981282F30E03F832E836E817F815B
:102780006230710549F18E819F818330910534F467
:102790002E813F812130310561F056C06E817F81ED
:1027A0006330710561F18E819F8184309105D1F193
:1027B0004BC0ABE3B0E0EBE3F0E040818A81282F2F
:1027C00030E081E090E0022E02C0880F991F0A9449
:1027D000E2F7842B8C9338C0A8E3B0E0E8E3F0E0A4
:1027E00040818A81282F30E081E090E0022E02C0F3
:1027F000880F991F0A94E2F7842B8C9325C0A5E3D8
:10280000B0E0E5E3F0E040818A81282F30E081E00C
:1028100090E0022E02C0880F991F0A94E2F7842BE1
:102820008C9312C0A2E3B0E0E2E3F0E040818A8141
:10283000282F30E081E090E0022E02C0880F991F1F
:102840000A94E2F7842B8C938B818F5F8B838B812F
:10285000803208F4B1CD2B960FB6F894DEBF0FBED0
:10286000CDBFCF91DF910895DF93CF93CDB7DEB782
:10287000F89481E0CF91DF910895DF93CF93CDB7A6
:10288000DEB7789481E0CF91DF910895DF93CF9305
:10289000CDB7DEB7F89481E0CF91DF910895DF9353
:1028A000CF93CDB7DEB728970FB6F894DEBF0FBE33
:1028B000CDBF9C838B831A828B819C81009709F406
:1028C000DBC11982D2C18981282F30E0C901880F6C
:1028D000991F280F391F8B819C81FC01E20FF31F88
:1028E0008281882389F08981282F30E0C901880FEF
:1028F000991F280F391F8B819C81FC01E20FF31F68
:102900008281813009F034C1A5E5B0E0E5E5F0E071
:102910008081482F8981282F30E0C901880F991FB5
:10292000280F391F8B819C81FC01E20FF31F8281EC
:10293000882F90E09C01220F331F83E090E002C0BB
:10294000880F991F2A95E2F7809584238C938981BB
:10295000282F30E0C901880F991F280F391F8B815C
:102960009C81FC01E20FF31F8081282F30E0388723
:102970002F838F8198858334910509F465C02F8159
:102980003885243431055CF48F8198858032910537
:1029900079F02F8138852134310539F07BC08F8162
:1029A00098858136910551F175C081E08A8374C0A4
:1029B000A5E5B0E0E5E5F0E08081482F8981282F8A
:1029C00030E0C901880F991F280F391F8B819C8126
:1029D000FC01E20FF31F8281882F90E09C01220FFF
:1029E000331F81E090E0022E02C0880F991F0A94E5
:1029F000E2F7842B8C9381E08A834EC0A5E5B0E09A
:102A0000E5E5F0E08081482F8981282F30E0C90179
:102A1000880F991F280F391F8B819C81FC01E20FC1
:102A2000F31F8281882F90E09C01220F331F82E0E8
:102A300090E0022E02C0880F991F0A94E2F7842BBF
:102A40008C9381E08A8328C0A5E5B0E0E5E5F0E05D
:102A50008081482F8981282F30E0C901880F991F74
:102A6000280F391F8B819C81FC01E20FF31F8281AB
:102A7000882F90E09C01220F331F83E090E0022E0C
:102A800002C0880F991F0A94E2F7842B8C9381E08F
:102A90008A8302C082E08A838981282F30E0C901BD
:102AA000880F991F280F391F8B819C81FC01E20F31
:102AB000F31F8181853221F5ABE5B0E0EBE5F0E075
:102AC0008081482F8981282F30E0C901880F991F04
:102AD000280F391F8B819C81FC01E20FF31F82813B
:102AE000882F90E09C012A5F3F4F81E090E0022E0A
:102AF00002C0880F991F0A94E2F7842B8C93B2C00E
:102B00008981282F30E0C901880F991F280F391FAC
:102B10008B819C81FC01E20FF31F81818A3029F5B2
:102B2000ABE5B0E0EBE5F0E08081482F8981282F0C
:102B300030E0C901880F991F280F391F8B819C81B4
:102B4000FC01E20FF31F8281882F90E09C012A5F35
:102B50003F4F81E090E0022E02C0880F991F0A9437
:102B6000E2F7809584238C937DC082E08A837AC0CB
:102B70008981282F30E0C901880F991F280F391F3C
:102B80008B819C81FC01E20FF31F8281823009F06E
:102B900067C0A4E5B0E0E4E5F0E080818F7B8C9332
:102BA0008981282F30E0C901880F991F280F391F0C
:102BB0008B819C81FC01E20FF31F8081282F30E084
:102BC0003E832D838D819E818334910541F02D813B
:102BD0003E812136310569F481E08A830CC0A4E589
:102BE000B0E0E4E5F0E0808180648C9381E08A834A
:102BF00002C082E08A838981282F30E0C901880FD2
:102C0000991F280F391F8B819C81FC01E20FF31F54
:102C10008181853241F4ABE5B0E0EBE5F0E0808105
:102C200080628C931AC08981282F30E0C901880FF7
:102C3000991F280F391F8B819C81FC01E20FF31F24
:102C400081818A3041F4ABE5B0E0EBE5F0E08081D2
:102C50008F7D8C9302C082E08A8381E08A8302C0E8
:102C600082E08A8389818F5F89839091680189815D
:102C7000891708F428CE02C083E08A838A812896C7
:102C80000FB6F894DEBF0FBECDBFCF91DF91089590
:102C9000DF93CF9300D000D000D0CDB7DEB79B83B9
:102CA0008A836C8319828C81282F30E03E832D83A8
:102CB0008D819E818334910509F44FC02D813E8121
:102CC000243431055CF48D819E818032910579F048
:102CD0002D813E812134310539F05AC08D819E818C
:102CE00081369105F9F054C081E0898353C0A5E590
:102CF000B0E0E5E5F0E08081482FEA81FB81828148
:102D0000882F90E09C01220F331F81E090E0022E7B
:102D100002C0880F991F0A94E2F7842B8C9381E0FC
:102D2000898338C0A5E5B0E0E5E5F0E08081482F73
:102D3000EA81FB818281882F90E09C01220F331F62
:102D400082E090E0022E02C0880F991F0A94E2F7F9
:102D5000842B8C9381E089831DC0A5E5B0E0E5E577
:102D6000F0E08081482FEA81FB818281882F90E00A
:102D70009C01220F331F83E090E0022E02C0880FD7
:102D8000991F0A94E2F7842B8C9381E0898302C017
:102D900082E08983898126960FB6F894DEBF0FBE44
:102DA000CDBFCF91DF910895DF93CF9300D00F92E5
:102DB000CDB7DEB79B838A831982ABE5B0E0EBE544
:102DC000F0E08081482FEA81FB818281882F90E0AA
:102DD0009C012A5F3F4F81E090E0022E02C0880FE5
:102DE000991F0A94E2F7842B8C9389810F900F909E
:102DF0000F90CF91DF910895DF93CF9300D00F9282
:102E0000CDB7DEB79B838A831982ABE5B0E0EBE5F3
:102E1000F0E08081482FEA81FB818281882F90E059
:102E20009C012A5F3F4F81E090E0022E02C0880F94
:102E3000991F0A94E2F7809584238C9389810F90DF
:102E40000F900F90CF91DF910895DF93CF93CDB77F
:102E5000DEB727970FB6F894DEBF0FBECDBF9B83BA
:102E60008A837D836C835F834E8319828A819B81F1
:102E7000009759F18C819D81009739F1EA81FB819E
:102E800082818330F8F4EA81FB818281882F90E08F
:102E9000880F991FFC01E45CFD4F8C819D8191831B
:102EA0008083EA81FB818281882F90E0880F991FBF
:102EB000FC01EE5BFD4F8E819F819183808381E0D9
:102EC000898305C082E0898302C083E08983898188
:102ED00027960FB6F894DEBF0FBECDBFCF91DF911E
:102EE00008951F920F920FB60F9211242F933F93C4
:102EF0004F935F936F937F938F939F93AF93BF9302
:102F0000EF93FF93DF93CF93CDB7DEB780913C0271
:102F100090913D02009749F0E0913C02F0913D0212
:102F200080914202909143020995CF91DF91FF91E8
:102F3000EF91BF91AF919F918F917F916F915F9131
:102F40004F913F912F910F900FBE0F901F901895AA
:102F50001F920F920FB60F9211242F933F934F930E
:102F60005F936F937F938F939F93AF93BF93EF93F1
:102F7000FF93DF93CF93CDB7DEB780913E02909160
:102F80003F02009749F0E0913E02F0913F028091AC
:102F90004402909145020995CF91DF91FF91EF9105
:102FA000BF91AF919F918F917F916F915F914F9161
:102FB0003F912F910F900FBE0F901F9018951F9269
:102FC0000F920FB60F9211242F933F934F935F935D
:102FD0006F937F938F939F93AF93BF93EF93FF93E1
:102FE000DF93CF93CDB7DEB780914002909141023D
:102FF000009749F0E0914002F09141028091460231
:10300000909147020995CF91DF91FF91EF91BF9188
:10301000AF919F918F917F916F915F914F913F9170
:103020002F910F900FBE0F901F901895DF93CF93A5
:1030300000D000D000D0CDB7DEB78C838C819AE071
:10304000692F0E94E429892F8B838C819AE0692F54
:103050000E94E4298A838A81282F30E03E832D83D1
:103060004D815E814230510541F18D819E818330D9
:10307000910534F42D813E812130310561F052C03B
:103080004D815E814330510551F18D819E818430A7
:103090009105B9F147C0E9E3F0E08081282F30E0E5
:1030A0008B81882F90E0A90102C0559547958A959C
:1030B000E2F7CA018170898335C0E6E3F0E08081E0
:1030C000282F30E08B81882F90E0A90102C0559510
:1030D00047958A95E2F7CA018170898323C0E3E3AB
:1030E000F0E08081282F30E08B81882F90E0A901CB
:1030F00002C0559547958A95E2F7CA018170898388
:1031000011C0E0E3F0E08081282F30E08B81882F30
:1031100090E0A90102C0559547958A95E2F7CA014A
:1031200081708983898126960FB6F894DEBF0FBE21
:10313000CDBFCF91DF910895DF93CF93CDB7DEB7A9
:1031400028970FB6F894DEBF0FBECDBF8B836C837C
:103150008B819AE0692F0E94E429892F8A838B81D1
:103160009AE0692F0E94E42989838C81813009F0DB
:1031700070C08981282F30E038872F838F81988510
:103180008230910551F12F8138852330310534F497
:103190008F8198858130910561F0D3C02F8138856A
:1031A0002330310571F18F81988584309105E9F1E3
:1031B000C8C0ABE3B0E0EBE3F0E08081482F8A8148
:1031C000282F30E081E090E0022E02C0880F991F86
:1031D0000A94E2F7842B8C93B4C0A8E3B0E0E8E350
:1031E000F0E08081482F8A81282F30E081E090E054
:1031F000022E02C0880F991F0A94E2F7842B8C9349
:10320000A0C0A5E3B0E0E5E3F0E08081482F8A812B
:10321000282F30E081E090E0022E02C0880F991F35
:103220000A94E2F7842B8C938CC0A2E3B0E0E2E333
:10323000F0E08081482F8A81282F30E081E090E003
:10324000022E02C0880F991F0A94E2F7842B8C93F8
:1032500078C08C81882309F074C08981282F30E0E0
:103260003E832D838D819E818230910561F12D8178
:103270003E812330310534F48D819E81813091056A
:1032800069F05FC02D813E812330310589F18D8148
:103290009E818430910509F440C053C0ABE3B0E097
:1032A000EBE3F0E08081482F8A81282F30E081E035
:1032B00090E0022E02C0880F991F0A94E2F78095D1
:1032C00084238C933EC0A8E3B0E0E8E3F0E0808183
:1032D000482F8A81282F30E081E090E0022E02C042
:1032E000880F991F0A94E2F7809584238C9329C054
:1032F000A5E3B0E0E5E3F0E08081482F8A81282F44
:1033000030E081E090E0022E02C0880F991F0A94FD
:10331000E2F7809584238C9314C0A2E3B0E0E2E34B
:10332000F0E08081482F8A81282F30E081E090E012
:10333000022E02C0880F991F0A94E2F78095842319
:103340008C9328960FB6F894DEBF0FBECDBFCF91F9
:10335000DF910895DF93CF9300D000D0CDB7DEB7D3
:103360008A838A81282F30E03C832B838B819C8148
:1033700082309105D9F02B813C812330310534F422
:103380008B819C818130910561F01EC02B813C8135
:103390002330310581F08B819C818430910581F04F
:1033A00013C0EBE3F0E0808189830EC0E8E3F0E036
:1033B0008081898309C0E5E3F0E08081898304C0CE
:1033C000E2E3F0E08081898389810F900F900F9074
:1033D0000F90CF91DF910895DF93CF9300D000D06D
:1033E000CDB7DEB789836A838981282F30E03C839B
:1033F0002B838B819C8182309105D9F02B813C817C
:103400002330310534F48B819C818130910561F04A
:103410001EC02B813C812330310581F08B819C8142
:103420008430910581F013C0EBE3F0E08A81808362
:103430000EC0E8E3F0E08A81808309C0E5E3F0E0B4
:103440008A81808304C0E2E3F0E08A8180830F9068
:103450000F900F900F90CF91DF910895DF93CF934E
:1034600000D000D00F92CDB7DEB78B838B819AE06E
:10347000692F0E94E429892F8A838B819AE0692F22
:103480000E94E42989838981282F30E03D832C83A1
:103490008C819D818230910551F12C813D812330B9
:1034A000310534F48C819D818130910561F05AC0E1
:1034B0002C813D812330310571F18C819D818430D7
:1034C0009105E9F14FC0ABE3B0E0EBE3F0E08081C0
:1034D000482F8A81282F30E081E090E0022E02C040
:1034E000880F991F0A94E2F784278C933BC0A8E3C6
:1034F000B0E0E8E3F0E08081482F8A81282F30E0B7
:1035000081E090E0022E02C0880F991F0A94E2F732
:1035100084278C9327C0A5E3B0E0E5E3F0E0808149
:10352000482F8A81282F30E081E090E0022E02C0EF
:10353000880F991F0A94E2F784278C9313C0A2E3A3
:10354000B0E0E2E3F0E08081482F8A81282F30E06C
:1035500081E090E0022E02C0880F991F0A94E2F7E2
:1035600084278C930F900F900F900F900F90CF9116
:10357000DF910895DF93CF93CDB7DEB7E2970FB613
:10358000F894DEBF0FBECDBF1D8A1C8A1B8A1A8A23
:10359000198A188A1F8683E28E8B82E28F8B81E2E2
:1035A000888F80E2898F8FE28A8F8EE28B8F8DE207
:1035B0008C8F8BE28D8F1A8A198AFEC029893A89ED
:1035C000CE014696FC01E20FF31F808160E00E946D
:1035D0009C18188A1F86DAC02F853889CE014A9632
:1035E000FC01E20FF31F80810E9416188C8B8C89DE
:1035F000882309F0C6C080E090E0A0E2B1E48B87A8
:103600009C87AD87BE876B857C858D859E8520E0F8
:1036100030E04AE755E40E941F02DC01CB018F83B2
:103620009887A987BA876F81788589859A8520E0F0
:1036300030E040E85FE30E94250488232CF481E019
:1036400090E09E838D833FC06F81788589859A85C0
:1036500020E03FEF4FE757E40E94C50318164CF5F2
:103660006B857C858D859E8520E030E040E251E4CD
:103670000E941F02DC01CB01BC01CD010E94490068
:10368000DC01CB019E838D830FC080E991E09C8398
:103690008B838B819C810197F1F79C838B838D8138
:1036A0009E8101979E838D838D819E81009769F70E
:1036B00014C06F81788589859A850E944900DC0154
:1036C000CB019E838D838D819E819A83898389819D
:1036D0009A810197F1F79A8389832F853889CE01E2
:1036E0004A96FC01E20FF31F80810E9416188C8B12
:1036F0008C89882309F045C040C02F853889CE01C8
:103700004A96FC01E20FF31F80810E9416188C8BF1
:10371000CE014E969FA78EA7E9E7F1E0F9ABE8ABA3
:10372000F0E1FAABE8A9F9A9008088A999A9019666
:1037300099AB88ABEEA5FFA500828EA59FA501964B
:103740009FA78EA79AA991509AABEAA9EE2351F7A9
:1037500089899A894F8558899C01220F331F220F2E
:10376000331FCE010196820F931F840F951FFC011A
:103770007D9680818D8B81E08B8B8C89882309F4E9
:10378000BCCF8F8598890196988B8F878F85988974
:10379000843091050CF420CF29893A89CE014696D0
:1037A000FC01E20FF31F808161E00E949C1889896F
:1037B0009A8901969A8B898B89899A898430910597
:1037C0000CF4FCCE8B89882311F48FEF8D8B8D89BF
:1037D000E2960FB6F894DEBF0FBECDBFCF91DF915A
:1037E0000895DF93CF930F92CDB7DEB781E0898341
:1037F00029ED3DE180E0B90140E050E00E940E0A71
:1038000089810F90CF91DF910895DF93CF93CDB74A
:10381000DEB768970FB6F894DEBF0FBECDBF89E262
:1038200061E00E949C1880E090E0AAE7B4E48D8BF0
:103830009E8BAF8BB88F6D897E898F89988D2BEA8F
:103840003AEA4AEA50E40E941F02DC01CB01898B6C
:103850009A8BAB8BBC8B69897A898B899C8920E098
:1038600030E040E85FE30E94250488231CF481E0F7
:10387000888B91C069897A898B899C8920E030E0A6
:103880004FE753E40E94C50318160CF07BC06D8906
:103890007E898F89988D20E030E04AE754E40E94C9
:1038A0001903DC01CB018C879D87AE87BF876C85B0
:1038B0007D858E859F8520E030E04AE755E40E94B3
:1038C0001F02DC01CB0188879987AA87BB8768859F
:1038D00079858A859B8520E030E040E85FE30E949F
:1038E000250488232CF481E090E09F838E833FC0E1
:1038F000688579858A859B8520E03FEF4FE757E40F
:103900000E94C50318164CF56C857D858E859F85B4
:1039100020E030E040E251E40E941F02DC01CB01D4
:10392000BC01CD010E944900DC01CB019F838E8345
:103930000FC080E991E09D838C838C819D810197EC
:10394000F1F79D838C838E819F8101979F838E8366
:103950008E819F81009769F724C0688579858A8563
:103960009B850E944900DC01CB019F838E838E8161
:103970009F819B838A838A819B810197F1F79B8337
:103980008A830FC069897A898B899C890E94490042
:10399000DC01CB01888B8889898389818A95F1F73D
:1039A000898389E260E00E949C1868960FB6F894BB
:1039B000DEBF0FBECDBFCF91DF910895DF93CF93D0
:1039C000CDB7DEB76B970FB6F894DEBF0FBECDBF95
:1039D0009B8F8A8F81E0898F0E94051C80E090E098
:1039E000A0EAB0E48D8B9E8BAF8BB88F6D897E89FA
:1039F0008F89988D2BEA3AEA4AEA50E40E941F0226
:103A0000DC01CB01898B9A8BAB8BBC8B69897A8962
:103A10008B899C8920E030E040E85FE30E94250428
:103A200088231CF481E0888B91C069897A898B890D
:103A30009C8920E030E04FE753E40E94C50318164C
:103A40000CF07BC06D897E898F89988D20E030E0F5
:103A50004AE754E40E941903DC01CB018C879D875F
:103A6000AE87BF876C857D858E859F8520E030E0A1
:103A70004AE755E40E941F02DC01CB018887998741
:103A8000AA87BB87688579858A859B8520E030E099
:103A900040E85FE30E94250488232CF481E090E055
:103AA0009F838E833FC0688579858A859B8520E0CA
:103AB0003FEF4FE757E40E94C50318164CF56C859D
:103AC0007D858E859F8520E030E040E251E40E94B4
:103AD0001F02DC01CB01BC01CD010E944900DC01C9
:103AE000CB019F838E830FC080E991E09D838C83FF
:103AF0008C819D810197F1F79D838C838E819F81BD
:103B000001979F838E838E819F81009769F724C0E0
:103B1000688579858A859B850E944900DC01CB01F7
:103B20009F838E838E819F819B838A838A819B81E1
:103B30000197F1F79B838A830FC069897A898B8902
:103B40009C890E944900DC01CB01888B888989838C
:103B500089818A95F1F789832091710230917202EF
:103B600085E991E1AC01249FC001259F900D349F10
:103B7000900D1124CC01A0E0B0E0BC01CD010E9469
:103B8000A904DC01CB01EA8DFB8D80839183A283A4
:103B9000B38380917102909172020E944428898DB2
:103BA0006B960FB6F894DEBF0FBECDBFCF91DF91FD
:103BB0000895DF93CF930F92CDB7DEB781E089836D
:103BC000809148028F5F8093480280914802813043
:103BD00031F40E94FF0980E00E94AD0912C080917B
:103BE0004802823061F481E792E00E94E50981E0B9
:103BF0000E94AD090E94FF091092480202C082E0B3
:103C0000898389810F90CF91DF9108950F931F933E
:103C1000DF93CF93CDB7DEB7C154D0400FB6F89441
:103C2000DEBF0FBECDBFFE01E05CFF4F91838083FE
:103C30001CAE1DAE1EAE1FAE1BAE28C08BAD082F36
:103C400010E0FE01E05CFF4F808191812AE030E0CE
:103C5000B9010E94F029282FCE01CC96FC01E00F7B
:103C6000F11F20838E01005C1F4FFE01E05CFF4FBF
:103C7000808191812AE030E0B9010E94F029CB01D6
:103C8000F801918380838BAD8F5F8BAFFE01E05C89
:103C9000FF4F80819181009709F400C38BAD843080
:103CA00068F2FCC21BAE8BAD282F30E0CE01CC9663
:103CB000FC01E20FF31F8081982F917084E1692F3E
:103CC0000E949C188BAD282F30E0CE01CC96FC01D1
:103CD000E20FF31F80818695982F917085E1692FFF
:103CE0000E949C188BAD282F30E0CE01CC96FC01B1
:103CF000E20FF31F808186958695982F917086E15B
:103D0000692F0E949C188BAD282F30E0CE01CC96F5
:103D1000FC01E20FF31F8081869586958695982F8A
:103D2000917088E1692F0E949C188DE060E00E94EC
:103D30009C1880E090E0A0E8BFE38DAB9EABAFABFA
:103D4000B8AF6DA97EA98FA998AD20E030E04AE711
:103D500055E40E941F02DC01CB0189AB9AABABABEF
:103D6000BCAB69A97AA98BA99CA920E030E040E806
:103D70005FE30E94250488232CF481E090E098AB57
:103D80008FA73FC069A97AA98BA99CA920E03FEF22
:103D90004FE757E40E94C50318164CF56DA97EA99C
:103DA0008FA998AD20E030E040E251E40E941F026C
:103DB000DC01CB01BC01CD010E944900DC01CB013B
:103DC00098AB8FA70FC080E991E09EA78DA78DA526
:103DD0009EA50197F1F79EA78DA78FA598A901979A
:103DE00098AB8FA78FA598A9009769F714C069A908
:103DF0007AA98BA99CA90E944900DC01CB0198AB50
:103E00008FA78FA598A99CA78BA78BA59CA5019789
:103E1000F1F79CA78BA78DE061E00E949C1881E0E0
:103E20008BAF8BAD282F30E0CE01CC96FC01E20F9A
:103E3000F31F8081982F917084E1692F0E949C1854
:103E40008BAD282F30E0CE01CC96FC01E20FF31FA2
:103E500080818695982F917085E1692F0E949C182A
:103E60008BAD282F30E0CE01CC96FC01E20FF31F82
:103E7000808186958695982F917086E1692F0E94A2
:103E80009C188BAD282F30E0CE01CC96FC01E20FC0
:103E9000F31F8081869586958695982F917088E18D
:103EA000692F0E949C188CE060E00E949C1880E0C2
:103EB00090E0A0E8BFE38FA398A7A9A7BAA76FA136
:103EC00078A589A59AA520E030E04AE755E40E944C
:103ED0001F02DC01CB018BA39CA3ADA3BEA36BA1EE
:103EE0007CA18DA19EA120E030E040E85FE30E942C
:103EF000250488232CF481E090E09AA389A33FC095
:103F00006BA17CA18DA19EA120E03FEF4FE757E47C
:103F10000E94C50318164CF56FA178A589A59AA52E
:103F200020E030E040E251E40E941F02DC01CB01BE
:103F3000BC01CD010E944900DC01CB019AA389A3F9
:103F40000FC080E991E098A38F8F8F8D98A1019782
:103F5000F1F798A38F8F89A19AA101979AA389A3BA
:103F600089A19AA1009769F714C06BA17CA18DA1CA
:103F70009EA10E944900DC01CB019AA389A389A1DB
:103F80009AA19E8F8D8F8D8D9E8D0197F1F79E8FBB
:103F90008D8F8CE061E00E949C1882E08BAF8BAD2E
:103FA000282F30E0CE01CC96FC01E20FF31F808178
:103FB000982F917084E1692F0E949C188BAD282F57
:103FC00030E0CE01CC96FC01E20FF31F8081869594
:103FD000982F917085E1692F0E949C188BAD282F36
:103FE00030E0CE01CC96FC01E20FF31F8081869574
:103FF0008695982F917086E1692F0E949C188BAD51
:10400000282F30E0CE01CC96FC01E20FF31F808117
:10401000869586958695982F917088E1692F0E94E4
:104020009C1889E160E00E949C1880E090E0A0E884
:10403000BFE3898F9A8FAB8FBC8F698D7A8D8B8D03
:104040009C8D20E030E04AE755E40E941F02DC012D
:10405000CB018D8B9E8BAF8BB88F6D897E898F89BD
:10406000988D20E030E040E85FE30E94250488233B
:104070002CF481E090E09C8B8B8B3FC06D897E8916
:104080008F89988D20E03FEF4FE757E40E94C503EA
:1040900018164CF5698D7A8D8B8D9C8D20E030E063
:1040A00040E251E40E941F02DC01CB01BC01CD01C2
:1040B0000E944900DC01CB019C8B8B8B0FC080E9F7
:1040C00091E09A8B898B89899A890197F1F79A8B6C
:1040D000898B8B899C8901979C8B8B8B8B899C8985
:1040E000009769F714C06D897E898F89988D0E9429
:1040F0004900DC01CB019C8B8B8B8B899C89988B35
:104100008F878F8598890197F1F7988B8F8789E141
:1041100061E00E949C1883E08BAF8BAD282F30E0CC
:10412000CE01CC96FC01E20FF31F8081982F917095
:1041300084E1692F0E949C188BAD282F30E0CE01BE
:10414000CC96FC01E20FF31F80818695982F917029
:1041500085E1692F0E949C188BAD282F30E0CE019D
:10416000CC96FC01E20FF31F808186958695982FEF
:10417000917086E1692F0E949C188BAD282F30E04A
:10418000CE01CC96FC01E20FF31F808186958695C7
:104190008695982F917088E1692F0E949C188AE17A
:1041A00060E00E949C1880E090E0A0E8BFE38B876D
:1041B0009C87AD87BE876B857C858D859E8520E03D
:1041C00030E04AE755E40E941F02DC01CB018F83F7
:1041D0009887A987BA876F81788589859A8520E035
:1041E00030E040E85FE30E94250488232CF481E05E
:1041F00090E09E838D833FC06F81788589859A8505
:1042000020E03FEF4FE757E40E94C50318164CF536
:104210006B857C858D859E8520E030E040E251E411
:104220000E941F02DC01CB01BC01CD010E944900AC
:10423000DC01CB019E838D830FC080E991E09C83DC
:104240008B838B819C810197F1F79C838B838D817C
:104250009E8101979E838D838D819E81009769F752
:1042600014C06F81788589859A850E944900DC0198
:10427000CB019E838D838D819E819A8389838981E1
:104280009A810197F1F79A8389838AE161E00E941C
:104290009C1889AD9AAD01969AAF89AF89AD9AAD58
:1042A000F3E0883E9F070CF4FDCCCF5BDF4F0FB6E9
:1042B000F894DEBF0FBECDBFCF91DF911F910F915C
:1042C0000895DF93CF93CDB7DEB7EF970FB6F8948D
:1042D000DEBF0FBECDBF8CAF6DAF1BAE1AAE8CADC7
:1042E000282F30E03FAF2EAF8EAD9FAD82309105CD
:1042F00009F493C02EAD3FAD2330310534F48EADBB
:104300009FAD8130910571F0F8C12EAD3FAD2330E6
:10431000310509F4FDC08EAD9FAD8430910509F4DF
:1043200072C1EBC18FE20E9416188BAF80E090E063
:10433000A8ECB1E48DAB9EABAFABB8AF6DA97EA9D5
:104340008FA998AD20E030E04AE755E40E941F02B3
:10435000DC01CB0189AB9AABABABBCAB69A97AA949
:104360008BA99CA920E030E040E85FE30E9425048F
:1043700088232CF481E090E098AB8FA73FC069A917
:104380007AA98BA99CA920E03FEF4FE757E40E9450
:10439000C50318164CF56DA97EA98FA998AD20E02C
:1043A00030E040E251E40E941F02DC01CB01BC017D
:1043B000CD010E944900DC01CB0198AB8FA70FC053
:1043C00080E991E09EA78DA78DA59EA50197F1F7A5
:1043D0009EA78DA78FA598A9019798AB8FA78FA5AA
:1043E00098A9009769F714C069A97AA98BA99CA913
:1043F0000E944900DC01CB0198AB8FA78FA598A93B
:104400009CA78BA78BA59CA50197F1F79CA78BA7D1
:104410008FE20E9416188AAF70C18EE20E941618B1
:104420008BAF80E090E0A8ECB1E48FA398A7A9A798
:10443000BAA76FA178A589A59AA520E030E04AE740
:1044400055E40E941F02DC01CB018BA39CA3ADA30A
:10445000BEA36BA17CA18DA19EA120E030E040E82D
:104460005FE30E94250488232CF481E090E09AA366
:1044700089A33FC06BA17CA18DA19EA120E03FEF4D
:104480004FE757E40E94C50318164CF56FA178A5B5
:1044900089A59AA520E030E040E251E40E941F0285
:1044A000DC01CB01BC01CD010E944900DC01CB0144
:1044B0009AA389A30FC080E991E098A38F8F8F8D75
:1044C00098A10197F1F798A38F8F89A19AA10197DD
:1044D0009AA389A389A19AA1009769F714C06BA137
:1044E0007CA18DA19EA10E944900DC01CB019AA371
:1044F00089A389A19AA19E8F8D8F8D8D9E8D019705
:10450000F1F79E8F8D8F8EE20E9416188AAFF5C04C
:104510008DE20E9416188BAF80E090E0A8ECB1E429
:10452000898F9A8FAB8FBC8F698D7A8D8B8D9C8D87
:1045300020E030E04AE755E40E941F02DC01CB0195
:104540008D8B9E8BAF8BB88F6D897E898F89988D6F
:1045500020E030E040E85FE30E94250488232CF44B
:1045600081E090E09C8B8B8B3FC06D897E898F8929
:10457000988D20E03FEF4FE757E40E94C5031816DF
:104580004CF5698D7A8D8B8D9C8D20E030E040E27A
:1045900051E40E941F02DC01CB01BC01CD010E944D
:1045A0004900DC01CB019C8B8B8B0FC080E991E033
:1045B0009A8B898B89899A890197F1F79A8B898BD4
:1045C0008B899C8901979C8B8B8B8B899C8900970D
:1045D00069F714C06D897E898F89988D0E94490082
:1045E000DC01CB019C8B8B8B8B899C89988B8F8773
:1045F0008F8598890197F1F7988B8F878DE20E94BC
:1046000016188AAF7AC08BE20E9416188BAF80E032
:1046100090E0A8ECB1E48B879C87AD87BE876B8563
:104620007C858D859E8520E030E04AE755E40E9438
:104630001F02DC01CB018F839887A987BA876F811E
:10464000788589859A8520E030E040E85FE30E9424
:10465000250488232CF481E090E09E838D833FC065
:104660006F81788589859A8520E03FEF4FE757E491
:104670000E94C50318164CF56B857C858D859E853B
:1046800020E030E040E251E40E941F02DC01CB0157
:10469000BC01CD010E944900DC01CB019E838D83CA
:1046A0000FC080E991E09C838B838B819C81019773
:1046B000F1F79C838B838D819E8101979E838D83EF
:1046C0008D819E81009769F714C06F8178858985F7
:1046D0009A850E944900DC01CB019E838D838D81E8
:1046E0009E819A83898389819A810197F1F79A83C0
:1046F00089838DE20E9416188AAF8BAD813041F418
:104700008AAD882329F481E089AF8AAD8BAF09C0D7
:104710008BAD882331F48AAD813019F419AE8AAD9E
:104720008BAF89ADEF960FB6F894DEBF0FBECDBF4D
:10473000CF91DF910895DF93CF9300D00F92CDB743
:10474000DEB789838981282F30E03B832A838A81E1
:104750009B8181309105F9F02A813B81223031051E
:104760002CF48A819B81009761F01EC02A813B81D5
:104770002230310559F08A819B818330910581F087
:1047800013C08BE161E00E949C180EC08EE061E0D6
:104790000E949C1809C08FE061E00E949C1804C030
:1047A00080E161E00E949C180F900F900F90CF91D4
:1047B000DF910895DF93CF9300D00F92CDB7DEB78E
:1047C00089838981282F30E03B832A838A819B81DA
:1047D00081309105F9F02A813B81223031052CF49A
:1047E0008A819B81009761F01EC02A813B81223023
:1047F000310559F08A819B818330910581F013C086
:104800008BE160E00E949C180EC08EE060E00E9488
:104810009C1809C08FE060E00E949C1804C080E1F1
:1048200060E00E949C180F900F900F90CF91DF9145
:104830000895DF93CF9300D00F92CDB7DEB7898371
:104840008981282F30E03B832A838A819B818130B4
:104850009105C9F02A813B81223031052CF48A81EF
:104860009B81009761F01AC02A813B81223031057B
:1048700071F08A819B818330910569F00FC08BE1D3
:104880000E942E1A0BC08FE00E942E1A07C08EE0E5
:104890000E942E1A03C080E10E942E1A0F900F90E2
:1048A0000F90CF91DF910895DF93CF93CDB7DEB70F
:1048B000E9970FB6F894DEBF0FBECDBF89AF8EE08B
:1048C00060E00E949C188CE060E00E949C1889AD1A
:1048D000982F991F9927991F88E1692F0E949C188A
:1048E00089AD8295869586958370982F917086E123
:1048F000692F0E949C1889AD829586958770982FA4
:10490000917085E1692F0E949C1889AD82958F7006
:10491000982F917084E1692F0E949C188CE061E0CF
:104920000E949C1880E090E0A0E2B1E48DAB9EABC9
:10493000AFABB8AF6DA97EA98FA998AD20E030E0EC
:104940004AE755E40E941F02DC01CB0189AB9AAB18
:10495000ABABBCAB69A97AA98BA99CA920E030E0DC
:1049600040E85FE30E94250488232CF481E090E076
:1049700098AB8FA73FC069A97AA98BA99CA920E011
:104980003FEF4FE757E40E94C50318164CF56DA999
:104990007EA98FA998AD20E030E040E251E40E946A
:1049A0001F02DC01CB01BC01CD010E944900DC01EA
:1049B000CB0198AB8FA70FC080E991E09EA78DA790
:1049C0008DA59EA50197F1F79EA78DA78FA598A904
:1049D000019798AB8FA78FA598A9009769F714C086
:1049E00069A97AA98BA99CA90E944900DC01CB0185
:1049F00098AB8FA78FA598A99CA78BA78BA59CA5E3
:104A00000197F1F79CA78BA78CE060E00E949C18AF
:104A100080E090E0A0E2B1E48FA398A7A9A7BAA78D
:104A20006FA178A589A59AA520E030E04AE755E472
:104A30000E941F02DC01CB018BA39CA3ADA3BEA3EC
:104A40006BA17CA18DA19EA120E030E040E85FE356
:104A50000E94250488232CF481E090E09AA389A386
:104A60003FC06BA17CA18DA19EA120E03FEF4FE74D
:104A700057E40E94C50318164CF56FA178A589A5C7
:104A80009AA520E030E040E251E40E941F02DC01E0
:104A9000CB01BC01CD010E944900DC01CB019AA3EE
:104AA00089A30FC080E991E098A38F8F8F8D98A183
:104AB0000197F1F798A38F8F89A19AA101979AA3E3
:104AC00089A389A19AA1009769F714C06BA17CA161
:104AD0008DA19EA10E944900DC01CB019AA389A36C
:104AE00089A19AA19E8F8D8F8D8D9E8D0197F1F753
:104AF0009E8F8D8F89AD869586958695982F91701E
:104B000088E1692F0E949C1889AD86958695982F1B
:104B1000917086E1692F0E949C1889AD8695982F27
:104B2000917085E1692F0E949C1889AD982F917032
:104B300084E1692F0E949C188CE061E00E949C181F
:104B400080E090E0A0E2B1E4898F9A8FAB8FBC8FB8
:104B5000698D7A8D8B8D9C8D20E030E04AE755E49D
:104B60000E941F02DC01CB018D8B9E8BAF8BB88F17
:104B70006D897E898F89988D20E030E040E85FE381
:104B80000E94250488232CF481E090E09C8B8B8B81
:104B90003FC06D897E898F89988D20E03FEF4FE778
:104BA00057E40E94C50318164CF5698D7A8D8B8DDC
:104BB0009C8D20E030E040E251E40E941F02DC01C5
:104BC000CB01BC01CD010E944900DC01CB019C8BD3
:104BD0008B8B0FC080E991E09A8B898B89899A89A8
:104BE0000197F1F79A8B898B8B899C8901979C8B14
:104BF0008B8B8B899C89009769F714C06D897E899E
:104C00008F89988D0E944900DC01CB019C8B8B8B96
:104C10008B899C89988B8F878F8598890197F1F76D
:104C2000988B8F878CE060E00E949C1880E090E079
:104C3000A0E2B1E48B879C87AD87BE876B857C85BE
:104C40008D859E8520E030E04AE755E40E941F02F2
:104C5000DC01CB018F839887A987BA876F8178851C
:104C600089859A8520E030E040E85FE30E942504D2
:104C700088232CF481E090E09E838D833FC06F8178
:104C8000788589859A8520E03FEF4FE757E40E94B9
:104C9000C50318164CF56B857C858D859E8520E0B7
:104CA00030E040E251E40E941F02DC01CB01BC0174
:104CB000CD010E944900DC01CB019E838D830FC092
:104CC00080E991E09C838B838B819C810197F1F734
:104CD0009C838B838D819E8101979E838D838D81A3
:104CE0009E81009769F714C06F81788589859A85C0
:104CF0000E944900DC01CB019E838D838D819E81C2
:104D00009A83898389819A810197F1F79A838983AC
:104D1000E9960FB6F894DEBF0FBECDBFCF91DF91FD
:104D20000895DF93CF930F92CDB7DEB789838DE0DF
:104D300060E00E949C1889810E9454240F90CF91BA
:104D4000DF910895DF93CF930F92CDB7DEB78983BC
:104D50008DE061E00E949C1889810E9454240F908C
:104D6000CF91DF910895DF93CF93CDB7DEB7AA97A8
:104D70000FB6F894DEBF0FBECDBF80E090E0ACE090
:104D8000B2E48FA398A7A9A7BAA76FA178A589A510
:104D90009AA520E030E04AE755E40E941F02DC01BA
:104DA000CB018BA39CA3ADA3BEA36BA17CA18DA1C2
:104DB0009EA120E030E040E85FE30E9425048823C4
:104DC0002CF481E090E09AA389A33FC06BA17CA161
:104DD0008DA19EA120E03FEF4FE757E40E94C5035D
:104DE00018164CF56FA178A589A59AA520E030E0AA
:104DF00040E251E40E941F02DC01CB01BC01CD0165
:104E00000E944900DC01CB019AA389A30FC080E96D
:104E100091E098A38F8F8F8D98A10197F1F798A3B8
:104E20008F8F89A19AA101979AA389A389A19AA199
:104E3000009769F714C06BA17CA18DA19EA10E946F
:104E40004900DC01CB019AA389A389A19AA19E8F75
:104E50008D8F8D8D9E8D0197F1F79E8F8D8F8DE0BB
:104E600060E00E949C1888E160E00E949C1886E146
:104E700060E00E949C1885E161E00E949C1884E13A
:104E800060E00E949C188CE061E00E949C1880E029
:104E900090E0A0E2B1E4898F9A8FAB8FBC8F698DCF
:104EA0007A8D8B8D9C8D20E030E04AE755E40E949E
:104EB0001F02DC01CB018D8B9E8BAF8BB88F6D8970
:104EC0007E898F89988D20E030E040E85FE30E9482
:104ED000250488232CF481E090E09C8B8B8B3FC0D1
:104EE0006D897E898F89988D20E03FEF4FE757E4E9
:104EF0000E94C50318164CF5698D7A8D8B8D9C8D9B
:104F000020E030E040E251E40E941F02DC01CB01CE
:104F1000BC01CD010E944900DC01CB019C8B8B8B35
:104F20000FC080E991E09A8B898B89899A890197D2
:104F3000F1F79A8B898B8B899C8901979C8B8B8B42
:104F40008B899C89009769F714C06D897E898F8948
:104F5000988D0E944900DC01CB019C8B8B8B8B8947
:104F60009C89988B8F878F8598890197F1F7988B0B
:104F70008F878CE060E00E949C1880E090E0A0E2C7
:104F8000B1E48B879C87AD87BE876B857C858D85DB
:104F90009E8520E030E04AE755E40E941F02DC01D4
:104FA000CB018F839887A987BA876F817885898598
:104FB0009A8520E030E040E85FE30E9425048823E2
:104FC0002CF481E090E09E838D833FC06F817885D3
:104FD00089859A8520E03FEF4FE757E40E94C5039B
:104FE00018164CF56B857C858D859E8520E030E01C
:104FF00040E251E40E941F02DC01CB01BC01CD0163
:105000000E944900DC01CB019E838D830FC080E9A3
:1050100091E09C838B838B819C810197F1F79C832A
:105020008B838D819E8101979E838D838D819E814F
:10503000009769F714C06F81788589859A850E94E9
:105040004900DC01CB019E838D838D819E819A83F3
:10505000898389819A810197F1F79A83898380E214
:105060000E9491268FE00E94912681E00E94912665
:1050700086E00E949126AA960FB6F894DEBF0FBE76
:10508000CDBFCF91DF9108950F931F93DF93CF93FF
:10509000CDB7DEB72C970FB6F894DEBF0FBECDBFED
:1050A00069877A878B879C878FEF9FEF9C838B83A1
:1050B00089859A85AB85BC850097A105B10519F452
:1050C00080E30E94A22689859A85AB85BC85BB2397
:1050D0000CF042C08DE20E94A22689859A85AB859C
:1050E000BC85B095A095909581959F4FAF4FBF4FD0
:1050F00089879A87AB87BC872FC08B819C8101965B
:105100009C838B830B811C8189859A85AB85BC85AB
:105110002AE030E040E050E0BC01CD010E94262AA8
:10512000DC01CB01282F205DCE010596FC01E00FAC
:10513000F11F208389859A85AB85BC852AE030E004
:1051400040E050E0BC01CD010E94262ADA01C901ED
:1051500089879A87AB87BC8789859A85AB85BC850B
:105160000097A105B10549F68B819C819A838983BB
:105170000FC029813A81CE010596FC01E20FF31F91
:1051800080810E94A22689819A8101979A838983CE
:1051900089819A8199236CF72C960FB6F894DEBF1B
:1051A0000FBECDBFCF91DF911F910F910895DF9377
:1051B000CF9300D0CDB7DEB79A83898389819A8156
:1051C000009791F00CC0E981FA818081282F8981B4
:1051D0009A8101969A838983822F0E94A226E9816F
:1051E000FA818081882379F70F900F90CF91DF911A
:1051F0000895DF93CF9300D0CDB7DEB789836A835C
:1052000089818330F0F489818823D9F08A818531BE
:10521000C0F48A818823A9F08A81882F90E09C01BC
:10522000220F331F220F331FC901880F991F880FC8
:10523000991F820F931F982F8981890F85590E948A
:1052400091260F900F90CF91DF910895DF93CF9328
:1052500000D000D00F92CDB7DEB79C838B836D83D7
:105260008D81880F880F880F805C0E9491261A829A
:1052700019820FC029813A818B819C81FC01E20F48
:10528000F31F80810E94A22689819A8101969A83C8
:10529000898389819A818830910564F38D81805852
:1052A0000E9491260F900F900F900F900F90CF912A
:1052B000DF910895DF93CF930F92CDB7DEB7898347
:1052C00089810E94A2260F90CF91DF9108950F93BC
:1052D000DF93CF93CDB7DEB789E891E00E94C91183
:1052E0000E94170788E999E260E070E044E650E028
:1052F00020E000E00E94340787EA99E260E070E075
:1053000042E350E021E000E00E94340786EB99E29E
:1053100060E070E04CE251E022E000E00E943407DF
:105320000E94AD0780E090E0CF91DF910F9108954A
:10533000DF93CF9300D0CDB7DEB79A83898380E027
:105340000E9419240F900F90CF91DF910895DF9361
:10535000CF9300D0CDB7DEB79A83898381E00E94D6
:1053600019240F900F90CF91DF910895DF93CF9381
:1053700000D0CDB7DEB79A83898382E00E941924DA
:105380000F900F90CF91DF910895629FD001739F8E
:10539000F001829FE00DF11D649FE00DF11D929FD1
:1053A000F00D839FF00D749FF00D659FF00D992710
:1053B000729FB00DE11DF91F639FB00DE11DF91F34
:1053C000BD01CF0111240895991B79E004C0991FF4
:1053D000961708F0961B881F7A95C9F7809508954F
:1053E000AA1BBB1B51E107C0AA1FBB1FA617B7070B
:1053F00010F0A61BB70B881F991F5A95A9F7809527
:105400009095BC01CD010895A1E21A2EAA1BBB1BE9
:10541000FD010DC0AA1FBB1FEE1FFF1FA217B30780
:10542000E407F50720F0A21BB30BE40BF50B661F96
:10543000771F881F991F1A9469F76095709580955A
:1054400090959B01AC01BD01CF01089597FB092EFA
:1054500005260ED057FD04D0D7DF0AD0001C38F443
:1054600050954095309521953F4F4F4F5F4F089590
:10547000F6F790958095709561957F4F8F4F9F4F70
:1054800008952F923F924F925F926F927F928F92E8
:105490009F92AF92BF92CF92DF92EF92FF920F93C3
:1054A0001F93CF93DF93CDB7DEB7CA1BDB0B0FB6CD
:1054B000F894DEBF0FBECDBF09942A88398848888A
:1054C0005F846E847D848C849B84AA84B984C88420
:1054D000DF80EE80FD800C811B81AA81B981CE0F17
:1054E000D11D0FB6F894DEBF0FBECDBFED010895FC
:0454F000F894FFCF5E
:1054F4000000000000000000000102020303030397
:10550400040404040404040405050505050505054F
:10551400050505050505050506060606060606062F
:105524000606060606060606060606060606060617
:1055340006060606060606060707070707070707FF
:1055440007070707070707070707070707070707E7
:1055540007070707070707070707070707070707D7
:1055640007070707070707070707070707070707C7
:1055740007070707070707070808080808080808AF
:105584000808080808080808080808080808080897
:105594000808080808080808080808080808080887
:1055A4000808080808080808080808080808080877
:1055B4000808080808080808080808080808080867
:1055C4000808080808080808080808080808080857
:1055D4000808080808080808080808080808080847
:1055E4000808080808080808080808080808080837
:1055F4000808080808080808036125006125024313
:105604002501000101000101003738392F343536F6
:105614002A3132332D30303D2B1B0101010E0001A4
:10562400010F000101100001011401010115010124
:10563400011601010117010101180101010D010108
:10564400010C0101012301010122010101210101D8
:10565400012001010120010000290001002F0100A7
:10566400002E0100002D0100002B010000000000AD
:105674000000000000000000000000000000000026
:105684000000000000000000000000000000000016
:0A569400000000000000000000000C
:00000001FF
